:100000000C946B020C9493020C9493020C94930244
:100010000C9493020C9493020C9493020C9493020C
:100020000C9493020C9493020C9493020C949302FC
:100030000C9493020C9493020C9493020C949302EC
:100040000C943D240C9493020C94AD240C948724BE
:100050000C9493020C9493020C9493020C949302CC
:100060000C9493020C9493025D20004F4646004F7F
:100070004E0046616E3A20004F4646004F4E0052F9
:100080006F6F6D3A20004F4646004F4E0048616C3E
:100090006C3A20004F4646004F4E0047617264653F
:1000A0006E3A20005374617465732073796E6365D2
:1000B0006400426C796E6B20636F6E6E656374656D
:1000C000642100626C6E6B696E66006D6375003052
:1000D0002E302E300066772D7479706500544D50A7
:1000E0004C33714C504A5F4C5641006275696C64E8
:1000F000004A756E20323620323032352031373AA0
:1001000034353A303900626C796E6B00312E332E03
:100110003200682D62656174003435006275666670
:100120002D696E0032353600646576004172647563
:10013000696E6F20556E6F006370750041546D6578
:1001400067613332385000636F6E0057353130309D
:10015000000000436F6E6E656374696E6720746F94
:100160002000436F6E6E656374696E6720746F2044
:1001700000476174657761793A200049503A200060
:1001800044484350204F4B00444843502066616927
:100190006C65642C207573696E6720737461746973
:1001A0006320495000496E697469616C697A696EAF
:1001B00067206E6574776F726B2E2E2E000D0A20ED
:1001C0002020205F5F5F20205F5F202020202020F4
:1001D000202020205F5F0D0A2020202F205F202973
:1001E0002F202F5F205F5F5F5F5F20202F202F5F1A
:1001F0005F0D0A20202F205F20202F202F202F2F5F
:10020000202F205F205C2F2020275F2F0D0A202F1A
:100210005F5F5F5F2F5F2F5C5F2C202F5F2F2F5F53
:100220002F5F2F5C5F5C0D0A2020202020202020E3
:100230002F5F5F5F2F2076312E332E32206F6E209E
:1002400041726475696E6F20556E6F0D0A0D0A203C
:10025000235374616E6457697468556B7261696E7B
:10026000652020202068747470733A2F2F6269749F
:100270002E6C792F737775610D0A0D0A0049503A7B
:100280000044484350204661696C6564210047651D
:100290007474696E672049502E2E2E00426C796E60
:1002A0006B20636F6E6E65637465642100426C79C8
:1002B0006E6B20636F6E6E656374696F6E2066612E
:1002C000696C656400417474656D70743A20004314
:1002D0006F6E6E656374696E6720746F20426C790F
:1002E0006E6B2E2E2E0053797374656D20726561CE
:1002F000647921004465766963657320696E697469
:1003000069616C697A656400484F4D4520415554D8
:100310004F4D4154494F4E2076322E30004574687F
:1003200065726E657420646973636F6E6E65637465
:10033000656400426C796E6B207265636F6E6E65EA
:100340006374696E672E2E2E0000000000240027C3
:10035000002A0000000000250028002B00000000FB
:1003600000230026002900040404040404040402F9
:100370000202020202030303030303010204081042
:1003800020408001020408102001020408102042CD
:100390006C796E6B20646973636F6E6E65637465F0
:1003A00064006D73292E005265616479202870699C
:1003B0006E673A20000000000800020100000304FC
:1003C000070000000000000000AB02AB02AB02AB74
:1003D00002AB02AB02AB02AB02AB02AB02AB02ABB5
:1003E00002AB02AB02AB02AB02AB02AB02AB02ABA5
:1003F00002AB02AB02AB02AB02AB02AB02AB02AB95
:1004000002AB02AB02AB02AB021C24FD23DE23BF16
:1004100023AA02AA02AA02AA02AA02AA02AA02AA5B
:1004200002AA02AA02AA02AA02AA02AA02AA02AA6C
:1004300002AA02AA02AA02AA02AA02AA02AA02AA5C
:1004400002AA02AA02AA02AA02496E76616C696433
:1004500020485720636D643A2000536572766572B8
:100460003A20005265646972656374696E6720742E
:100470006F20005265616479005061636B65742080
:10048000746F6F206269673A2000436F6E6E656318
:1004900074206661696C65642E20636F64653A2020
:1004A00000496E76616C6964206175746820746FB0
:1004B0006B656E004C6F67696E2074696D656F7552
:1004C00074004865617274626561742074696D6559
:1004D0006F757400D22511241FBECFEFD8E0DEBFA8
:1004E000CDBF12E0A0E0B1E0E8EEFBE502C0059070
:1004F0000D92A230B107D9F723E0A2E0B2E001C02B
:100500001D92AC3BB207E1F712E0CBE6D2E004C0AB
:100510002197FE010E94B02DCA36D107C9F70E946B
:10052000A6260C94F22D0C9400008CBD9DBD089560
:1005300020E3FC0120833296862F82958F706F70A6
:100540006A3030F4605D6293682F8111F5CF0895B1
:10055000695CF9CF08950895FC01818D928D08950D
:10056000833081F028F4813099F08230A9F0089529
:100570008730A9F08830C9F08430B1F480918000D0
:100580008F7D03C0809180008F77809380000895D5
:1005900084B58F7784BD089584B58F7DFBCF80911E
:1005A000B0008F778093B00008958091B0008F7D68
:1005B000F9CF1F93CF93DF93282F30E0F901EB544D
:1005C000FC4F8491F901E558FC4FD491F901E959A8
:1005D000FC4FC491CC23A9F0162F81110E94B002C8
:1005E000EC2FF0E0EE0FFF1FED5AFC4FA591B491F8
:1005F0008FB7F894EC91111108C0D095DE23DC93ED
:100600008FBFDF91CF911F910895DE2BF8CFCF934D
:10061000DF9390E0FC01E558FC4F249189599C4FF1
:10062000FC0184918823C9F090E0880F991FFC0198
:10063000E75BFC4FA591B491FC01ED5AFC4FC591CD
:10064000D49161110DC09FB7F8948C9120958223AD
:100650008C938881282328839FBFDF91CF910895B1
:10066000623051F49FB7F8943C91822F8095832398
:100670008C93E8812E2BEFCF8FB7F894EC912E2B33
:100680002C938FBFEACF3FB7F894809111029091DD
:100690001202A0911302B091140226B5A89B05C0C6
:1006A0002F3F19F00196A11DB11D3FBFBA2FA92FF1
:1006B000982F8827BC01CD01620F711D811D911DEE
:1006C00042E0660F771F881F991F4A95D1F708955A
:1006D0008F929F92AF92BF92CF92DF92EF92FF9252
:1006E0006B017C010E9443034B015C01C114D104E6
:1006F000E104F104B9F00E944303681979098A09F9
:100700009B09683E73408105910580F321E0C21A80
:10071000D108E108F10888EE880E83E0981EA11C3C
:10072000B11CE4CFFF90EF90DF90CF90BF90AF90DF
:100730009F908F9008952FB7F89460910D0270915B
:100740000E0280910F02909110022FBF08954F92D8
:100750005F926F927F92AF92BF92CF92DF92EF92B1
:10076000FF920F931F93CF93DF93EC016B017B01FB
:10077000E40EF51E8B015801AC18BD080E151F05BF
:1007800011F10E949B03688779878A879B87E8819C
:10079000F9810284F385E02DCE01099597FF23C0EE
:1007A0000E949B03488459846A847B846419750978
:1007B000860997094C805D806E807F806415750581
:1007C0008605970520F3C501DF91CF911F910F9109
:1007D000FF90EF90DF90CF90BF90AF907F906F90A1
:1007E0005F904F900895F80181938F01C4CFDC0191
:1007F000ED91FC910190F081E02D0994AF92BF92B0
:10080000CF92DF92EF92FF920F931F93CF93DF93DC
:100810006C017B018B01040F151FEB015E01AE180B
:10082000BF08C017D10759F06991D601ED91FC912D
:100830000190F081E02DC6010995892B79F7C5015A
:10084000DF91CF911F910F91FF90EF90DF90CF90AC
:10085000BF90AF900895FC01538D448D252F30E05B
:10086000842F90E0821B930B541710F0CF960895BD
:1008700001970895FC01918D828D981761F0A28DEA
:10088000AE0FBF2FB11D5D968C91928D9F5F9F73B0
:10089000928F90E008958FEF9FEF0895FC01918D66
:1008A000828D981731F0828DE80FF11D858D90E0D3
:1008B00008958FEF9FEF0895FC01918D228D892F70
:1008C00090E0805C9F4F821B91098F739927089558
:1008D0008AE992E00E945C0421E0892B09F420E07F
:1008E000822F089580E090E0892B29F00E9468040F
:1008F00081110C9400000895FC01A48DA80FB92F5C
:10090000B11DA35ABF4F2C91848D90E001968F7337
:100910009927848FA689B7892C93A089B1898C9156
:10092000837080648C93938D848D981306C00288A5
:10093000F389E02D80818F7D80830895EF92FF926F
:100940000F931F93CF93DF93EC0181E0888F9B8DF2
:100950008C8D98131AC0E889F989808185FF15C0AC
:100960009FB7F894EE89FF896083E889F9898081CF
:100970008370806480839FBF81E090E0DF91CF919E
:100980001F910F91FF90EF900895F62E0B8D10E0C0
:100990000F5F1F4F0F731127E02E8C8D8E110CC02F
:1009A0000FB607FCFACFE889F989808185FFF5CF7A
:1009B000CE010E947C04F1CFEB8DEC0FFD2FF11DD9
:1009C000E35AFF4FF0829FB7F8940B8FEA89FB89B7
:1009D00080818062CFCF0F931F93CF93DF938C01E1
:1009E000D0E0C0E0F801EC0FFD1F6491662341F0F8
:1009F0008AE992E00E949E04892B11F02196F2CFA1
:100A0000CE01DF91CF911F910F910895CF93DF9386
:100A1000EC01888D8823B9F0AA89BB89E889F98916
:100A20008C9185FD03C0808186FD0DC00FB607FC4B
:100A3000F7CF8C9185FFF2CF808185FFEDCFCE017E
:100A40000E947C04E9CFDF91CF910895FC012081C1
:100A50002EBD9B012150310941F051810DB407FE9B
:100A6000FDCF4EB55EBD4193F5CF61507109860F44
:100A7000971F0DB407FEFDCF2EB5FC01208308950E
:100A8000E0910302F0910402808190910202892B8F
:100A900080830895E0910302F09104029081809197
:100AA000020280958923808308958EBD00000DB4D5
:100AB00007FEFDCF8EB50895AF92BF92CF92DF9221
:100AC000EF92FF920F931F93CF93DF93CDB7DEB7D3
:100AD00028970FB6F894DEBF0FBECDBF8C017B0107
:100AE0006A01809131028333E1F45801A40EB51EEE
:100AF000A016B10609F46FC00E944A0580EF0E945B
:100B00005505812F0E945505802F0E9455050F5FC6
:100B10001F4FF70181917F010E9455050E944005FA
:100B2000E7CF5B01A40EB51E8433C1F40E944A05D1
:100B300019830A838D2D80688B83CC8264E070E0FA
:100B4000CE0101960E942605AE14BF0409F441C0EF
:100B5000F70181917F010E945505F6CF0E944A0559
:100B60000F3F110509F028F419820A8384E08B8372
:100B70000CC017FD17C019820A8333E0169507953C
:100B80003A95E1F7007E0C600B8386E0C816D1042D
:100B9000A0F5F701DE011496EA15FB0599F08191A5
:100BA0008D93FACFC80126E0969587952A95E1F7AF
:100BB000807E19830A830115104C10F48461D7CF0D
:100BC0008C61D5CFB6016D5F7F4FCE0101960E943B
:100BD00026050E944005C60128960FB6F894DEBF90
:100BE0000FBECDBFDF91CF911F910F91FF90EF907E
:100BF000DF90CF90BF90AF90089563E070E0CE019A
:100C000001960E942605F70181917F010E945505FA
:100C1000AE14BF04C1F7DDCFCF93DF931F92CDB7E2
:100C2000DEB7898341E050E0BE016F5F7F4F90E007
:100C300080E00E945C050F90DF91CF91089590E0D5
:100C400020913102233339F40C96982F990F990F84
:100C5000990F80E008954896F8CFDA01E0910602F6
:100C6000F0E0FE2FEE27E60FF71F90E0982F882781
:100C7000A901BD018E0F9F1F0C945C05CF93DF93DC
:100C800000D0CDB7DEB779836A8322E030E0AE01D1
:100C90004F5F5F4F60E170E00E942D060F900F9054
:100CA000DF91CF910895CF93DF9300D0CDB7DEB71A
:100CB00079836A8322E030E0AE014F5F5F4F64E0EA
:100CC00070E00E942D060F900F90DF91CF91089554
:100CD000CF93DF931F92CDB7DEB72091060230E0AD
:100CE000322F2227260F371F90E0982F882749831D
:100CF00041E050E0BE016F5F7F4F820F931F0E9463
:100D00005C050F90DF91CF910895CF93DF931F92F1
:100D1000CDB7DEB76983DC01ED91FC910280F381F0
:100D2000E02D41E050E0BE016F5F7F4F09950F90CD
:100D3000DF91CF910895FC019485FB018485981380
:100D400003C081E0943008F080E00895CF93DF93F2
:100D50001F92CDB7DEB76983DC01ED91FC91028073
:100D6000F381E02D41E050E0BE016F5F7F4F0995B8
:100D70000F90DF91CF91089544E050E0BC018FE0E7
:100D800090E00C945C0544E050E0BC0185E090E00C
:100D90000C945C0544E050E0BC0181E090E00C94D0
:100DA0005C050895FF920F931F93CF93DF93EB01A0
:100DB000FC01178A168A2A81211109C02B81211171
:100DC00006C02C81211103C02D81222301F1411580
:100DD0005105E9F08A01FC01F08C80E591E00E9468
:100DE0009502AE014E5F5F4F24E030E06CE070E0B2
:100DF0008F2D0E942D06B8018F2D0E943E0681E0A6
:100E000090E0DF91CF911F910F91FF90089580E0C6
:100E1000F7CFFC01848595850895FC018489958927
:100E200008952BE831E0FC0131832083FB014089E8
:100E3000518962897389FC0142835383648375837A
:100E40000895DC01ED91FC91048CF58DE02D099461
:100E500090E080E00895FC019485992369F08081F9
:100E60009181DC01ED91FC910688F789E02D0995CF
:100E700091E0811101C090E0892F0895DC011C965A
:100E80001C921C978D919C91009739F0DC01ED919B
:100E9000FC910488F589E02D09940895FC0176877A
:100EA00065870895DC01ED91FC9102A0F3A1E02D8E
:100EB000099591E089270895862F089581E0862776
:100EC000089521E0FC018485843008F020E0822F21
:100ED00008950895AF92BF92CF92DF92EF92FF9262
:100EE0000F931F93CF93DF9300D000D0CDB7DEB721
:100EF0008C016B017A01809131028333E9F45B014B
:100F00006801C40ED51EC016D106A9F10E944A057B
:100F10008FE00E945505812F0E945505802F0E9469
:100F200055050F5F1F4F80E00E945505F501819325
:100F30005F010E944005E7CF843369F50E944A05AE
:100F400019830A838F2D8F778B83EC8264E070E0A6
:100F5000CE0101960E942605A70170E060E0C6015F
:100F60000E94CC2DE114F10421F0B701C6010E94CA
:100F700026050E944005C7010F900F900F900F901B
:100F8000DF91CF911F910F91FF90EF90DF90CF9065
:100F9000BF90AF9008950E944A050F3F110509F0D8
:100FA00030F419820A831B8263E070E0D1CF17FD11
:100FB0000BC019820A8333E0169507953A95E1F73D
:100FC000007E08600B83F0CFC80126E096958795D8
:100FD0002A95E1F7807E19830A830115104C18F4D5
:100FE00080618B83E1CF8861FCCF1F93CF93DF9328
:100FF0001F92CDB7DEB7182F80E591E00E949502D1
:10100000812F0E941F0627E0129FF0011124EB5E42
:10101000FD4F22813381377041E050E0BE016F5FA8
:101020007F4F820F931F0E946A0789810F90DF9183
:10103000CF911F910895FC01808D843040F4218D63
:10104000328D232B21F00E94F50790E008958FEF59
:101050009FEF0895CF93DF93FC012485243028F07F
:101060008FEF9FEFDF91CF910895EC010190F08118
:10107000E02D0084F185E02D0995892B89F38C857D
:101080000E94F50790E0EECFCF93DF931F92CDB78C
:10109000DEB741E050E0BE016F5F7F4F0E946A07FC
:1010A00089810F90DF91CF91089590E080E00C94BA
:1010B0004408CF93DF93C4E1D0E00E945508882311
:1010C00061F061E070E080E090E00E9468032197A9
:1010D000A1F780E0DF91CF91089581E0FBCF1F93CE
:1010E000CF93DF9300D0CDB7DEB780910702811197
:1010F00011C160E372E080E090E00E9468031FB7D6
:10110000F89480910502811127C0E1E7F3E0849112
:10111000E5E8F3E09491E82FF0E0EE0FFF1FE75BC6
:10112000FC4FA591B491EC91E92321F461E08AE0B0
:101130000E94D90261E08AE00E9407038CB58061B9
:101140008CBD8CB580648CBD61E08DE00E9407038E
:1011500061E08BE00E940703809105028F5F80931E
:1011600005021FBF80910001282F30E0F901E959E5
:10117000FC4FE491F0E0EE0FFF1FED5AFC4F45915C
:1011800054915093040240930302F901E558FC4F37
:10119000E491E093020261E00E9407030E9440058F
:1011A00080E591E00E94950284E38093310280E81B
:1011B0000E940C060E945908882309F441C088E067
:1011C0000E940C060E9455088830D1F580E10E94EB
:1011D0000C060E945508803199F580E00E940C06AB
:1011E0000E945508182F81112BC08FE190E00E94BA
:1011F0004408833029F580E48093060242E06EE1E2
:1012000070E0812F0E94680642E06FE170E0812F5C
:101210000E9468061F5F143089F740E06EE170E0BD
:10122000812F0E94680640E06FE170E0812F0E94EC
:1012300068061F5F183089F781E08093070264C059
:1012400087E38093310280E80E940C060E945908CF
:101250008823F9F088E00E940C060E945508883027
:10126000C1F480E10E940C060E945508182F8031BD
:1012700081F480E00E940C060E945508811109C08B
:1012800089E390E00E944408843019F41093060228
:10129000D3CF83E38093310280E80E940C060E9442
:1012A0005908882371F180E10E940C060E945508BC
:1012B000803139F582E10E940C060E945508823186
:1012C00001F580E00E940C060E945508811119C0AA
:1012D00084E08093060215E51A8341E050E0BE01E8
:1012E0006E5F7F4F8BE190E00E945C05198341E0C7
:1012F00050E0BE016F5F7F4F8AE190E00E945C0585
:101300009BCF1092310280E00F900F90DF91CF9130
:101310001F91089581E0F8CFCF92DF92EF92FF9274
:101320000F931F93CF93DF936C01EB017A01890137
:101330000E946F08882321F180E591E00E949502C8
:1013400046E050E063E071E089E090E00E945C05D7
:10135000C60102960E94BC06C70102960E94CA06F8
:10136000C80102960E94C3068A819B81AC81BD811F
:101370008093570390935803A0935903B0935A0353
:10138000DF91CF911F910F91FF90EF90DF90CF9061
:1013900008952091060230E0322F2227620F731F3A
:1013A00090E0982F8827860F971F0C944408CF93BE
:1013B000C82F462F61E070E00E94680661E070E08F
:1013C0008C2F0E94C9098111F9CFCF910895CF9335
:1013D000C82F80E591E00E94950268E070E08C2FB4
:1013E000CF910C94D709CF93C82F80E591E00E944C
:1013F000950260E170E08C2FCF910C94D709CF93C8
:10140000DF93EC01888D843020F40E94F30984E09E
:10141000888FDF91CF910895CF93C82F80E591E019
:101420000E94950263E070E08C2FCF910C94C90963
:10143000CF93DF93EC018C858430D0F40E940C0AAA
:10144000843189F0882379F0883169F021E08C318A
:1014500059F4E881F9810084F185E02DCE010995E8
:1014600021E0892B09F420E0822FDF91CF910895AC
:1014700080E0FBCFCF92DF92EF92FF92CF93DF938A
:10148000EC018C85843068F40E94E7090E949B037C
:101490006B017C018C850E940C0A811109C084E0DB
:1014A0008C87DF91CF91FF90EF90DF90CF900895E0
:1014B00061E070E080E090E00E9468030E949B037E
:1014C000AB01BC014C195D096E097F098D859E85B4
:1014D000B0E0A0E0481759076A077B07D8F28C856F
:1014E0000E94F309DCCFCF93FC01C08D80E591E031
:1014F0000E94950260E270E08C2F0E94D70962E0A2
:1015000070E08C2F0E94C90984FD16C062E070E073
:101510008C2F0E94C90983FF0AC048E162E070E095
:101520008C2F0E94680680E090E0CF91089580E5BE
:1015300091E00E949502E3CF40E162E070E08C2FE1
:101540000E94680681E0F0CFDA01E0910602F0E047
:10155000FE2FEE27E60FF71F90E0982F8827A901AE
:10156000BD018E0F9F1F0C946A078F929F92AF92BE
:10157000BF92CF92DF92EF92FF921F93CF93DF93B0
:10158000CDB7DEB72C970FB6F894DEBF0FBECDBF38
:101590002091310214E0222339F16B017C0180E5B6
:1015A00091E00E9495025E0127E0A20EB11C450168
:1015B00010E063E070E0812F0E94C909F40181937B
:1015C0004F01882349F11F5F143099F710E0F501AE
:1015D00081915F018D31D9F08831C9F08A51823013
:1015E000B0F01F5F143099F7812F2C960FB6F89446
:1015F000DEBF0FBECDBFDF91CF911F91FF90EF9067
:10160000DF90CF90BF90AF909F908F90089560E152
:1016100070E0812F0E94D709A12EB12C83EE93E0B8
:101620000197F1F742E870E060E0812F0E946806C0
:101630004FEF62E070E0812F0E946806B601C1148E
:10164000D10491F4809101019091020101968115DC
:10165000F0EC9F0708F45CC09093020180930101B5
:101660006091010170910201812F0E94530686E072
:10167000E3E1F1E0DE01119601900D928A95E1F728
:10168000F70183818F778C8384818D8385818E831D
:10169000A7014E5F5F4F24E030E06CE070E0812FE7
:1016A0000E942D06B601812F0E943E0626E030E002
:1016B000AE014F5F5F4F66E070E0812F0E942D0604
:1016C00061E070E0812F0E94D70927E02A9DC001C8
:1016D0002B9D900D11249C012B5E3D4F7901F9014A
:1016E0001182108222E030E0AE01455F5F4F68E278
:1016F00070E0812F0E94A40A8B859C8598278927FA
:101700009827F701938382831682158214826CCF07
:1017100080E090ECA1CFCF92DF92EF92FF920F93F7
:101720001F93CF93DF9300D000D000D0CDB7DEB7AA
:101730008C016B017A01FC01808D843010F40E94D1
:10174000F3098BE891E09A838983F6018281938182
:10175000A481B5818B839C83AD83BE83B701CE0109
:1017600001960E94B50AF801808F8430A0F4F586B6
:10177000E486128E118E81E026960FB6F894DEBFB5
:101780000FBECDBFDF91CF911F910F91FF90EF90D2
:10179000DF90CF90089580E0EFCFAF92BF92CF92CD
:1017A000DF92EF92FF920F931F93CF93DF9300D0BE
:1017B00000D000D0CDB7DEB7082F6B0180E591E0F7
:1017C0000E9495029E012F5F3F4F7901590110E061
:1017D00063E070E0812F0E94C909F50181935F01E8
:1017E000882341F11F5F143099F710E0F7018191D0
:1017F0007F018D31D1F08831C1F08A518230A8F05B
:101800001F5F143099F7812F26960FB6F894DEBF2C
:101810000FBECDBFDF91CF911F910F91FF90EF9041
:10182000DF90CF90BF90AF90089560E170E0812F7E
:101830000E94D709E12EF12C83EE93E00197F1F796
:10184000402F70E060E0812F0E9468064FEF62E059
:1018500070E0812F0E946806B601CD2889F480913E
:1018600001019091020101968115F0EC9F0798F11A
:101870009093020180930101609101017091020136
:10188000812F0E94530661E070E0812F0E94D709EA
:1018900027E02E9DC0012F9D900D11249C012B5EF1
:1018A0003D4F7901F9011182108222E030E0AE0152
:1018B0004B5F5F4F68E270E0812F0E94A40A8D8128
:1018C0009E81982789279827F70193838283168220
:1018D0001582148298CF80E090ECCACFCF92DF922D
:1018E000EF92FF921F93CF93DF93EC017B016A018C
:1018F0008C85843048F40E940C0A882319F08C856A
:101900000E94E70984E08C87F70182819381A4819A
:10191000B5810097A105B10551F490E080E0DF9119
:10192000CF911F91FF90EF90DF90CF9008958F3F60
:101930009F4FAF4FBF4F89F380913102811103C098
:1019400084E08C87EACF70E060E081E20E94CD0BFA
:10195000182F8C87843008F780E591E00E9495026B
:10196000A7014E5F5F4F24E030E06CE070E0812F14
:101970000E942D06B601812F0E943E0664E070E0B1
:10198000812F0E94D7090E949B036B017C018C85EB
:101990000E940C0A873109F18C31F9F0882309F48F
:1019A000BCCF0E949B03AB01BC014C195D096E09C1
:1019B0007F098D859E85B0E0A0E084179507A60776
:1019C000B70738F061E070E080E090E00E946803C3
:1019D000DECF8C850E94F309B3CF81E090E09FCFEA
:1019E0000F931F93CF93DF93EC018B01888D84308D
:1019F00010F40E94F30980913102811107C094E034
:101A0000988FDF91CF911F910F910895B80182E0D7
:101A10000E94CD0B888F843030F41D870C871A8E7E
:101A2000198E81E0EECF80E0ECCF7F928F929F9273
:101A3000AF92BF92CF92DF92EF92FF920F931F93DC
:101A4000CF93DF9300D0CDB7DEB7782E8B014A015C
:101A5000590122E030E0AE014F5F5F4F64E270E079
:101A60000E94A40AE980FA80FE24EF24FE24E00EFE
:101A7000F11E9701377040913102072D10E043337A
:101A800009F042C0085F1F4F102F0027110F110FE0
:101A9000110FC901800F911F4733C9F1A9014A0DE8
:101AA0005B1D4130584098F160E078E06B01C21A4C
:101AB000D30AA601B4010E945C05A5014C195D0979
:101AC000B4016C0D7D1DC8010E945C05EA0CFB1C75
:101AD000F982EA8222E030E0AE014F5F5F4F64E2BC
:101AE00070E0872D0E942D060F900F90DF91CF910F
:101AF0001F910F91FF90EF90DF90CF90BF90AF902C
:101B00009F908F907F900895005F1F4FBDCFA501DC
:101B1000B401DACFEF92FF921F93CF93DF9300D0FF
:101B2000CDB7DEB7182F22E030E0AE014F5F5F4F38
:101B300060E270E00E94A40AE980FA80FE24EF24AB
:101B4000FE2422E030E0AE014F5F5F4F60E270E0C4
:101B5000812F0E94A40A89819A8198278927982732
:101B6000E816F90689F487E0189FF0011124EB5E6E
:101B7000FD4FF582E482C7010F900F90DF91CF9166
:101B80001F91FF90EF9008957C01DBCF1F93CF93BF
:101B9000DF93182F80E591E00E949502812F0E942B
:101BA0008A0DEC0163E070E0812F0E94C909873142
:101BB00021F08C3111F0D0E0C0E0CE01DF91CF9167
:101BC0001F910895CF93DF93EC018C85843060F4EE
:101BD0000E940C0A873111F08C3131F48C850E94FF
:101BE000C60D8115984088F3DF91CF910895FC01CF
:101BF0008485843010F40C94C60D90E080E0089544
:101C00009F92AF92BF92CF92DF92EF92FF920F938B
:101C10001F93CF93DF938C015B01942EE52EFC0183
:101C2000C688D788F08C80E591E00E9495028F2DC0
:101C30000E948A0DC92DDE2D8C179D0708F4EC013A
:101C40009E01A501B6018F2D0E94150DF801868910
:101C500097898C0F9D1F978B868BCE01DF91CF913B
:101C60001F910F91FF90EF90DF90CF90BF90AF90BA
:101C70009F9008958F929F92AF92BF92CF92DF92E2
:101C8000EF92FF920F931F93CF936C015B018A0138
:101C9000FC01C485C430F0F57A014130584018F099
:101CA000E12C88E0F82E80E591E00E9495028C2FCF
:101CB0000E948A0D4C0163E070E08C2F0E94C909DC
:101CC000873111F08C3149F58E149F0460F380E563
:101CD00091E00E9495029701A50170E060E08C2FD1
:101CE0000E94150D60E270E08C2F0E94D70962E01F
:101CF00070E08C2F0E94C90984FD17C063E070E07A
:101D00008C2F0E94C90981110BC081E090E0F6017F
:101D10009383828310E000E010C0F12CE12CD7CF38
:101D200080E591E00E949502E2CF40E162E070E040
:101D30008C2F0E946806EF2841F3C801CF911F91B4
:101D40000F91FF90EF90DF90CF90BF90AF909F905A
:101D50008F900895FF920F931F93CF93DF9300D03E
:101D6000CDB7DEB7F82E22E030E0AE014F5F5F4F17
:101D700066E270E00E94A40A09811A8110270127F7
:101D8000102722E030E0AE014F5F5F4F66E270E067
:101D90008F2D0E94A40A89819A81982789279827E4
:101DA0000817190749F4C8010F900F90DF91CF91E0
:101DB0001F910F91FF9008958C01E3CF1F93CF9354
:101DC000DF93182F87E0189FE0011124CB5EDD4FD1
:101DD00088819981009761F480E591E00E949502E5
:101DE000812F0E94AA0E2E81821B910999838883DC
:101DF000DF91CF911F910895FC018485843010F408
:101E00000C94DE0E90E080E008954F925F927F92F6
:101E10008F929F92AF92BF92CF92DF92EF92FF92FA
:101E20000F931F93CF93DF9300D0CDB7DEB7782EFB
:101E30006B014A01A82EB12C27E0829FC00111241A
:101E4000FC01EB5EFD4F7F010081118180E591E097
:101E50000E9495020815190554F4872D0E94AA0EB8
:101E6000F70126818C01021B1109118300830115E2
:101E7000110529F563E070E0872D0E94C9098431BE
:101E800059F0882349F001E010E08C3111F410E0A2
:101E900000E0119501951109C8010F900F90DF9195
:101EA000CF911F910F91FF90EF90DF90CF90BF9057
:101EB000AF909F908F907F905F904F900895801685
:101EC00091060CF4840187E08A9DF0018B9DF00D52
:101ED0001124EB5EFD4FE280F380C114D10451F177
:101EE0002701F7E05F22872D0E941F06840D951DB4
:101EF00020913102273309F453C09801240D351D78
:101F00002130384008F44CC020E038E04901841802
:101F10009508A401B6010E946A072601480C591CC5
:101F20006801C818D908872D0E941F06A601B201B2
:101F30000E946A07E00EF11E87E08A9DF0018B9DEA
:101F4000F00D1124EB5EFD4FF382E282208131819E
:101F5000201B310B318320838681800F912F911DAF
:101F60008A3F910510F4232BF1F487E08A9DF0015C
:101F70008B9DF00D1124EB5EFD4F1682F982EA82F3
:101F800022E030E0AE014F5F5F4F68E270E0872DE6
:101F90000E942D0660E470E0872D0E94D7097CCF57
:101FA000A801B601C5CF868377CFCF93DF93FC011D
:101FB000218D328D2115310529F48FEF9FEFDF91AF
:101FC000CF910895EC01808D4217530708F0A901C5
:101FD0000E94050F1816190684F7298D3A8D281BC3
:101FE000390B3A8F298FEBCF0F931F93CF93DF934A
:101FF0001F92CDB7DEB7FC01218D328D232B41F42A
:102000008FEF9FEF0F90DF91CF911F910F91089568
:102010008C0141E050E0BE016F5F7F4FFC01808D7D
:102020000E94050F181619065CF7F801818D928D34
:102030000197928F818F898190E0E4CFCF93DF93D6
:102040001F92CDB7DEB741E050E0BE016F5F7F4F1A
:10205000FC0184850E94050F1816190634F4898145
:1020600090E00F90DF91CF9108958FEF9FEFF9CF20
:10207000FC018485843010F40C94050F90E080E01E
:1020800008950F931F93CF93DF9300D0CDB7DEB7A2
:10209000FC0124852430E0F48C0180E591E00E946D
:1020A000950222E030E0AE014F5F5F4F60E170E0EB
:1020B000F80184850E94A40A89819A81982789273A
:1020C00098270F900F90DF91CF911F910F91089556
:1020D00090E080E0F6CF0F931F93CF93DF9300D073
:1020E000CDB7DEB7FC0124852430E0F48C0180E517
:1020F00091E00E94950222E030E0AE014F5F5F4F19
:1021000064E070E0F80184850E94A40A89819A81C4
:102110009827892798270F900F90DF91CF911F91D3
:102120000F91089590E080E0F6CFDC018BE891E01C
:102130008D939D9384E0FB0101900D928A95E1F7C8
:102140000895EF92FF920F931F93CF93DF9300D0E8
:1021500000D0CDB7DEB78C017B01FB0184858430D4
:10216000A8F08BE891E0F8019183808312821382BA
:1021700014821582C8010F900F900F900F90DF917D
:10218000CF911F910F91FF90EF90089580E591E01E
:102190000E94950224E030E0AE014F5F5F4F6CE09B
:1021A00070E0F70184850E94A40ABE016F5F7F4F33
:1021B000C8010E949510DECF0F931F93CF93DF933A
:1021C000CDB7DEB728970FB6F894DEBF0FBECDBFF0
:1021D0008C01D80159964D915C915A974115510542
:1021E00051F0ED91FC91048CF58DE02D70E060E0F4
:1021F000C8010995EECFF801808D0E94DE0E892B73
:10220000B1F148E050E0BE016F5F7F4FD8015896B2
:102210008C910E94050F18161906F4F4D8015096F7
:1022200084E0FE01319601900D928A95E1F78D814F
:1022300090E0982F88272E81820F911DF801958BB1
:10224000848B8F81282F30E0322F22278885820FC0
:10225000932F911D928F818F28960FB6F894DEBF31
:102260000FBECDBFDF91CF911F910F91089590E0E8
:1022700080E0F2CF4F925F926F927F928F929F9207
:10228000AF92BF92CF92DF92EF92FF920F931F9384
:10229000CF93DF93CDB7DEB763970FB6F894DEBF69
:1022A0000FBECDBF7C016B013A01FB0120E090E045
:1022B00080E06AE03191332309F461C040ED430FBF
:1022C0004A3008F04DC0689FA001699F500D11244D
:1022D000CA01C097830F911D37FD9A958F3F9105D5
:1022E00049F340F3F7014281538164817581809104
:1022F000630390916403A0916503B091660348174E
:1023000059076A077B0709F40DC28701085F1F4F51
:102310000E949B036F7077277C5FC8010E94F00CBE
:10232000813009F004C28BE891E09A838983F70138
:1023300082819381A481B5818B839C83AD83BE838D
:1023400045E350E0BE016F5F7F4FC8010E94D20697
:10235000892BA9F5D12CC12CC8010E94FF0917C0F7
:102360003E3209F0BFCF233009F4BCCFD301A20F16
:10237000B11D12968C932F5F90E080E09BCF2330AD
:1023800009F0B0CFF3018583CC24C394D12CC601CE
:1023900063960FB6F894DEBF0FBECDBFDF91CF912D
:1023A0001F910F91FF90EF90DF90CF90BF90AF9073
:1023B0009F908F907F906F905F904F9008950E94B4
:1023C0009B03F7017783668342E050E0B7016A5FC1
:1023D0007F4FC8010E94000E81E090E09A838983BC
:1023E00042E050E0BE016F5F7F4FC8010E94000EC7
:1023F00080E091E09A83898342E050E0BE016F5F04
:102400007F4FC8010E94000E1A82198242E050E0FC
:10241000BE016F5F7F4FC8010E94000E42E050E096
:10242000BE016F5F7F4FC8010E94000E42E050E086
:10243000BE016F5F7F4FC8010E94000E5601F6017A
:102440008081882301F16501F60181912F018823A4
:1024500011F08E32B1F446018A189B081814190441
:1024600074F48D8641E050E0BE01635F7F4FC80188
:102470000E94000EA401B501C8010E94000E520185
:10248000DECF6201E1CF1D8641E050E0BE01635F17
:102490007F4FC8010E94000EC12CDD24D394DA8244
:1024A000C98242E050E0BE016F5F7F4FC8010E94C9
:1024B000000EDA82C98242E050E0BE016F5F7F4FBA
:1024C000C8010E94000EC8010E94730A892B09F4FA
:1024D00041CFF3E0AF2EB12C230122E0420E511C7C
:1024E000D4C0F7014281538164817581808D918DC3
:1024F000A28DB38D481759076A077B0709F008C1F9
:10250000848D958DC59709F003C181A192A15DEFDE
:10251000C52EDD24DA940C970CF4ADC04CE050E0ED
:10252000BE016F5F7F4FC8010E94D50F8B819C81D8
:102530009827892798279A8B898BF701468157819D
:1025400029813A814217530709F0E7C097FFE5C098
:102550008F7092703BEFC32EDD24DA94892B09F043
:102560008AC06F8078847624672476242AEFC22E6E
:10257000DD24DA946114710409F47DC0D12CC12CDE
:102580008D819E81982789279827C816D906F8F447
:1025900041E050E0BE01635F7F4FC8010E94D50F4C
:1025A0004D85442331F050E070E060E0C8010E94A6
:1025B000D50F8D858111ECCF44E050E070E060E0F4
:1025C000C8010E94D50FFFEFCF1ADF0AD9CF912C97
:1025D000812C41E050E0BE016D5E7F4FC8010E943A
:1025E000D50F4B89842F807C09F06CC0442331F0D7
:1025F00050E070E060E0C8010E94D50F8B89811126
:10260000E8CF42E050E0BE01615F7F4FC8010E9409
:10261000D50F42E050E0BE01635F7F4FC8010E94CA
:10262000D50F44E050E070E060E0C8010E94D50F93
:1026300042E050E0BE016F5E7F4FC8010E94D50F9F
:102640008F85988949895A898115914009F043C03D
:10265000CD84DE84DC24CD24DC2481E0C816D104C2
:10266000D1F54115544009F04AC044E050E0B201B0
:10267000C8010E94D50F21E0A21AB10809F46CCE5E
:10268000FFEFCF16DF0609F067CE0E949B033B01E8
:102690004C01C8010E94DC10181619060CF421CF59
:1026A0000E949B0366197709880999096938734163
:1026B0008105910548F562E370E080E090E00E94BA
:1026C0006803E7CF41E050E070E060E0C8010E949D
:1026D000D50F1B8A93CF54274527542770E060E01D
:1026E000C8010E94D50FFFEF8F1A9F0A6814790462
:1026F00009F06FCF96EFC92EDD24DA94BCCFE7EF57
:10270000CE2EDD24DA94B7CFCC24CA94DC2CB3CF00
:102710006EEFC62EDD24DA94AECF4CEFC42EDD244E
:10272000DA94A9CF8EEFC82EDD24DA9430CED12CE6
:10273000C12C2DCECF92DF92EF92FF920F931F9379
:10274000CF93DF93CDB7DEB7AF970FB6F894DEBF68
:102750000FBECDBF7C016A010BE811E01A8309832B
:102760001C861B8688EE93E0A0E0B0E08D879E87F4
:10277000AF87B88B8DE191E09A878987188F0F8B8F
:10278000198E1A8E1B8E1C8E84E089A31BA70AA7A4
:102790001CA61DA61EA61FA6809157039091580344
:1027A000A0915903B0915A038EA39FA3A8A7B9A7DC
:1027B0008B839C83AD83BE8318861F82AE01465DEA
:1027C0005F4FCE0101960E943A1181309105B1F41C
:1027D000D701ED91FC910488F589E02D1DA30CA390
:1027E0008CA59DA5AEA5BFA58EA39FA3A8A7B9A79D
:1027F000A601BE016C5D7F4FC7010995AF960FB66C
:10280000F894DEBF0FBECDBFDF91CF911F910F9126
:10281000FF90EF90DF90CF900895CF92DF92EF92EC
:10282000FF920F931F93CF93DF93CDB7DEB7AF9790
:102830000FB6F894DEBF0FBECDBF8C016B017A01DD
:102840008BE891E09A8389831B821C821D821E8201
:102850001C861B8648EE53E060E070E04D875E8783
:102860006F87788B2DE131E03A872987988F8F8B9E
:10287000198E1A8E1B8E1C8E24E029A39BA78AA773
:102880001CA61DA61EA61FA6D8011C968C918430DE
:1028900060F40E940C0A882321F0F80184850E94CC
:1028A000E70984E0D8011C968C938091570390919E
:1028B0005803A0915903B0915A038EA39FA3A8A7D0
:1028C000B9A78B839C83AD83BE8318861F82AE011C
:1028D000465D5F4FB601CE0101960E943A11009706
:1028E000C1F0D801ED91FC910684F785E02D8BE8CD
:1028F00091E09DA38CA38CA59DA5AEA5BFA58EA39D
:102900009FA3A8A7B9A7A701BE016C5D7F4FC8010F
:102910000995AF960FB6F894DEBF0FBECDBFDF911D
:10292000CF911F910F91FF90EF90DF90CF9008957E
:10293000FB0101900020E9F73197AF01461B570BCF
:10294000DC01ED91FC910280F381E02D0994CF939D
:10295000DF930E94EB04EC016DE871E08AE992E0FC
:102960000E9498148C0F9D1FDF91CF910895FC0158
:1029700012A211A2828593850E943E078FE893E000
:102980000C94A7148F929F92AF92BF92EF92FF92F6
:102990000F931F93CF93DF93CDB7DEB7A1970FB6F9
:1029A000F894DEBF0FBECDBF7C01FA01CB0119A2A6
:1029B000223008F42AE08E010F5D1F4F822E912CE9
:1029C000B12CA12CBF01A50194010E940D2DF9018C
:1029D000CA016A300CF5605DD8016E938D01232B1E
:1029E000242B252B79F790E080E0109721F0BD0192
:1029F000C7010E949814A1960FB6F894DEBF0FBECF
:102A0000CDBFDF91CF911F910F91FF90EF90BF90BD
:102A1000AF909F908F900895695CDECFCF93DF9346
:102A2000AC0170E060E02AE08AE992E00E94C21402
:102A3000EC016DE871E08AE992E00E9498148C0F35
:102A40009D1FDF91CF910895462F50E070E060E028
:102A50002AE00C94C2148F929F92AF92BF92CF92B1
:102A6000DF92EF92FF920F931F93CF93DF937C013E
:102A70008B014C0182E0880E911C5701E5E0AE0EFF
:102A8000B11CD0E0C0E0F40161914F01C8010E9487
:102A900024156C016EE2C8010E94F7038C0D9D1D88
:102AA000C80FD91F8A149B0471F7F7016581C8010B
:102AB0000E9424158C0F9D1FDF91CF911F910F91C4
:102AC000FF90EF90DF90CF90BF90AF909F908F904E
:102AD0000895CF93DF936AE972E00E942B15EC0111
:102AE0006DE871E08AE992E00E9498148C0F9D1FB6
:102AF000DF91CF9108956BE58AE992E00E94F70398
:102B00000E949B03AB01BC012AE08AE992E00E948B
:102B1000C21488E690E00C94EB04EF92FF920F93BE
:102B20001F93CF93DF9300D000D000D0CDB7DEB796
:102B30008C017B01DC0118968D919C91892BC9F148
:102B40000E947B1583E591E00E94EB04F80160850B
:102B500071856115710521F08AE992E00E9498144F
:102B60006AE38AE992E00E94F703C7010E940E150A
:102B7000D8018D919C91119718966D917C91DC01F3
:102B8000ED91FC910088F189E02DA701099521E0E4
:102B9000019709F020E0822F26960FB6F894DEBF49
:102BA0000FBECDBFDF91CF911F910F91FF90EF909E
:102BB00008950E947B1582E691E00E94EB04F801E3
:102BC00064818AE992E00E9424156EE28AE992E02B
:102BD0000E94F703D80115966C918AE992E00E9451
:102BE00024156EE28AE992E00E94F703F8016681FB
:102BF0008AE992E00E9424156EE28AE992E00E943E
:102C0000F703D80117966C918AE992E00E94241587
:102C10006DE871E08AE992E00E949814F8018081E1
:102C20009181DC01ED91FC910684F785E02D2BE884
:102C300031E03A832983D80114964D915D916D91CD
:102C40007C9117974B835C836D837E83A701BE01C4
:102C50006F5F7F4F9BCF0F931F93CF93DF93EC0159
:102C6000FB0101900020E9F78F01061B170B8A81F9
:102C70009B81A801480F591F2C813D8124173507DE
:102C800068F028813981A801820F931F0E94C32D0B
:102C90004A815B81400F511F5B834A83DF91CF9153
:102CA0001F910F9108953F924F925F926F927F9282
:102CB0008F929F92AF92BF92CF92DF92EF92FF924C
:102CC0000F931F93CF93DF93CDB7DEB7EA970FB67D
:102CD000F894DEBF0FBECDBF7C012A013B01690124
:102CE0000E949B034B015C0187010D5B1F4FC801D4
:102CF0000E94DC10181619069CF00E949B036819AC
:102D000079098A099B09461657066806790608F468
:102D100066C162E370E080E090E00E946803E7CF64
:102D200042E250E0BE016F5F7F4FC8010E94D50FA5
:102D300089818230D1F0312C832DEA960FB6F89438
:102D4000DEBF0FBECDBFDF91CF911F910F91FF90DE
:102D5000EF90DF90CF90BF90AF909F908F907F903B
:102D60006F905F904F903F900895F8018489958906
:102D70008334910501F76D817E818F8198850E9452
:102D80003E2D4B015C01F60180829182A282B382CA
:102D900046E050E0B701685F7F4FCE014D960E943C
:102DA000B62D892B41F6F70180819181A281B381F3
:102DB00088169906AA06BB0608F4BDCF84819581C2
:102DC000A681B78188159905AA05BB0508F4B3CF7C
:102DD00089899A89AB89BC8986879787A08BB18BB3
:102DE0004EEC50E070E060E0C8010E94D50F312C3D
:102DF000C701829698AB8FA7F701B696FAABE9ABFD
:102E000008969CAB8BAB67019AE1C90ED11CBD96AD
:102E1000FEABEDABC701429698AF8FABFD97FAAF13
:102E2000E9AF4701FEE18F0E911CF801818D928D73
:102E3000181619060CF080CFC8010E94F40F8333D6
:102E4000910509F4B2C014F58130910509F464C00C
:102E500044F4892B51F3C8010E94F40FAC015527AB
:102E600075C08330910509F462C00697A1F7C801C7
:102E70000E94F40FB82E44E050E0B401C8010E9453
:102E8000D50FEB2DE450FF0BAF0160C08A339105E5
:102E900009F45FC084F585339105B1F1C697D9F681
:102EA000C8010E94F40F5C01B601CE0189960E9410
:102EB00095108BA59CA5ADA5BEA5892B8A2B8B2B28
:102EC000B1F0EDA9FEA94080518062807380B60107
:102ED000CE0183960E9495108DA19EA1AFA1B8A5A9
:102EE000A501481659066A067B0609F0B8CF44E0EA
:102EF00050E0B60118C08B33910509F440C08F3FF4
:102F0000910509F492CFA7CFC8010E94F40FC80120
:102F10000E94F40F382E89CFC8010E94F40F44E0BC
:102F200050E06FA978ADC8010E94D50F7ECFC801CF
:102F30000E94F40FB82E44E050E069AD7AADC801AC
:102F40000E94D50F8B2D8450990BAC0170E060E08E
:102F5000EACFC8010E94F40F44E050E069A97AA9C1
:102F6000C8010E94D50FF70166A177A180A591A5A0
:102F70000E943E2D66A377A380A791A756CFC801D4
:102F80000E94F40F44E050E06BA97CA9C8010E94A4
:102F9000D50FF70162A573A584A595A50E943E2DC6
:102FA00062A773A784A795A740CFC8010E94F40F1A
:102FB00044E050E06FA578A9C8010E94D50FF70141
:102FC00062A173A184A195A10E943E2D62A373A367
:102FD00084A395A366A777A780AB91AB26CF3324B4
:102FE0003A94AACE7F928F929F92AF92BF92CF9245
:102FF000DF92EF92FF920F931F93CF93DF93CDB7A2
:10300000DEB7A6970FB6F894DEBF0FBECDBF8C011A
:10301000762E942E852E20E2A22ECE0101967C01E2
:10302000DC01EA2D1D92EA95E9F76801F3E4CF0E81
:10303000D11C8BE891E09AA389A38FEF8BA38CA37B
:103040008DA38EA343E450E0BE016F5D7F4FC601A8
:103050000E94D206019609F4BFC081E089838A8369
:1030600086E0B82EBB821C82D80114966D917D91AA
:103070008D919C9117970E943E2D6D837E838F8347
:10308000988789869A8680E890E09C878B874CE1B8
:1030900050E0B701C6010E94000EFE0137968AE19A
:1030A000DF011D928A95E9F74801B8E08B0E911C6B
:1030B000F401D70101900D92BA94E1F740E150E09C
:1030C000B701C6010E94000EF7011192AA94E9F718
:1030D00096E0A92EB12C40E250E0B701C6010E9453
:1030E000000EF1E0AF1AB108B1F783E6898392E8E8
:1030F0009A8393E59B838C8385E38D8381E08E8324
:103100007F829DE3988797E099878A8786E0F4011C
:10311000DE011B9601900D928A95E1F78CE0898B78
:103120008A8B60E971E0CE0143960E94DC2DD801C4
:103130001B966C91CE0149960E949802F801648515
:10314000CE014B960E949802D8011D966C91CE013B
:103150004D960E9498024EE150E0B701C6010E94D0
:10316000000EB3E07B121EC082E3898384E08A8371
:10317000F80196859B8397859C8390899D8391898F
:103180009E8396E39F838887828D8987838D8A8734
:10319000848D8B87858D8C874CE050E0B701C6010C
:1031A0000E94000E87E3898386E08A8391E09B83F7
:1031B00093E09C838D838FE08E838AE38F838BE300
:1031C00088878FEF898749E050E0B701C6010E94E8
:1031D000000EC6010E94730AA6960FB6F894DEBFD1
:1031E0000FBECDBFDF91CF911F910F91FF90EF9058
:1031F000DF90CF90BF90AF909F908F907F90089579
:103200002F923F924F925F926F927F928F929F92F6
:10321000AF92BF92CF92DF92EF92FF920F931F93E4
:10322000CF93DF9300D000D000D0CDB7DEB78C01B4
:103230000E94E32B2FEC37E040E050E00E94DB2CB3
:10324000DC01CB010196A11DB11DF801848395839A
:10325000A683B78380839183A283B3835801F3E469
:10326000AF0EB11CC5010E94FF0964E470E0C50106
:103270000E94F00C882309F445C10E949B032B0196
:103280003C01480182E4880E911C48EEC42E43E0C4
:10329000D42EE12CF12C52E0252E1E821D82D40169
:1032A0008C918330B1F1811166C0F80184819581E0
:1032B000A681B7810196A11DB11D84839583A68344
:1032C000B7830E949B036419750986099709A701B2
:1032D00096010E940D2DA90161E0C8010E94F2171C
:1032E00081E0D4018C938D819E810197C1F20E946F
:1032F0009B036419750986099709D801D6962D9103
:103300003D914D915C91D99726173707480759078A
:1033100020F6C5010E94FF09F80184819581A681EC
:10332000B7810196A11DB11D84839583A683B783C0
:103330000E949B03F801FE966083718382839383CE
:103340008D819E8126960FB6F894DEBF0FBECDBF4D
:10335000DF91CF911F910F91FF90EF90DF90CF9071
:10336000BF90AF909F908F907F906F905F904F90A5
:103370003F902F9008958430F1F4F8018481958175
:10338000A681B7810196A11DB11D84839583A68373
:10339000B7830E949B036419750986099709A701E1
:1033A00096010E940D2DA90163E0C8010E94F21749
:1033B000D4012C9298CF813051F5F80142AD53AD34
:1033C00064AD75AD9E012F5F3F4FC8010E9453163B
:1033D000382EF2E08F1390C089819A81AB81BC8135
:1033E000F80184839583A683B7830E949B036419A5
:1033F000750986099709A70196010E940D2DA9015B
:1034000063E0C8010E94F217D4013C926CCF823075
:1034100009F069CFF80142AD53AD64AD75AD9E01C1
:103420002F5F3F4FC8010E945316382EF5E08F13CF
:103430005DC0E3E0D401EC93F80182A193A1A4A1C3
:10344000B5A1892B8A2B8B2B41F484E893E0A0E073
:10345000B0E082A393A3A4A3B5A3F80186A197A18A
:10346000A0A5B1A5892B8A2B8B2B61F482A193A1F6
:10347000A4A1B5A1B695A7959795879586A397A37F
:10348000A0A7B1A7F80182A593A5A4A5B5A5892BEE
:103490008A2B8B2BA9F482A193A1A4A1B5A1AC0185
:1034A000BD0123E076956795579547952A95D1F705
:1034B000841B950BA60BB70B82A793A7A4A7B5A750
:1034C000F80186A197A1A0A5B1A586A797A7A0AB53
:1034D000B1AB82A593A5A4A5B5A582AB93ABA4ABD4
:1034E000B5AB81E090E09E838D83FDCE96E089139D
:1034F00003C0D4011C92F7CEBFEF3B12F4CEF4010F
:103500001082F1CE1E821D821BCFEF92FF920F938D
:103510001F93CF93DF9300D000D000D0CDB7DEB79C
:103520008C018091920281112AC010927A0210922D
:10353000790288EE93E0A0E0B0E080937B02909364
:103540007C02A0937D02B0937E028DE191E0909386
:103550007802809377028BE891E0909386028093C3
:1035600085021092870210928802109289021092AE
:103570008A0284E080938F0281E08093920284E348
:1035800092E090933302809332020E946F08F12CF4
:10359000E12C882309F4B0C080E591E00E949502F7
:1035A00046E050E0B80189E090E00E945C058BE8BD
:1035B00091E09A8389831B821C821D821E82CE0128
:1035C00003960E94BC061092560210925702109267
:1035D00058021092590210925A0210925B021092F5
:1035E0005C0210925D0210925E0210925F021092D5
:1035F00060021092610280E69AEEA0E0B0E0809353
:103600006A0290936B02A0936C02B0936D0280EA01
:103610009FE0A0E0B0E080936E0290936F02A093D1
:103620007002B093710286E0ECE3F2E0DF01982FC4
:103630001D929A95E9F7E2E4F2E094E1DF011D9230
:103640009A95E9F7F801ACE3B2E001900D928A9502
:10365000E1F71092760284E392E00E9400197C0167
:10366000019709F049C080E591E00E949502009120
:10367000320210913302B801625F7F4FCE01019692
:103680000E949510CE0103960E94BC06B8016A5EA6
:103690007F4FCE0101960E949510CE0103960E94A5
:1036A000CA06B8016E5E7F4FCE0101960E9495104A
:1036B000CE0103960E94C306B801625E7F4FCE0121
:1036C00001960E9495108B819C81AD81BE81809373
:1036D000570390935803A0935903B0935A030E9441
:1036E00043037F738091010190910201682779273C
:1036F0007093020160930101C70126960FB6F894FA
:10370000DEBF0FBECDBFDF91CF911F910F91FF9014
:10371000EF9008950F931F93CF93DF93CDB7DEB74C
:1037200028970FB6F894DEBF0FBECDBF8C01CB013A
:103730004AE0BE016F5F7F4F0E94892CBE016F5F20
:103740007F4FC8010E942B1628960FB6F894DEBF53
:103750000FBECDBFDF91CF911F910F9108953F9282
:103760004F925F926F927F928F929F92AF92BF9291
:10377000CF92DF92EF92FF920F931F93CF93DF933D
:10378000CDB7DEB7A3970FB6F894DEBF0FBECDBF9F
:103790005C010DB71EB71BA30AA360E070E0CB016C
:1037A0000E946803D50191968D919C919297912CDE
:1037B000029709F4CAC090968C9190978F5F90966B
:1037C0008C9390975E962D913C91232B19F0992420
:1037D0009394B4C08330D8F7F501828593850E9415
:1037E0002B07882309F408C48E010F5F1F4F38018F
:1037F00040E1442E512CD5011A96ED91FC91808127
:103800009181DC01ED91FC910084F185E02D099519
:10381000181619060CF0F0C3D5011A96ED91FC911B
:1038200045E050E0BE01695E7F4F808191810E943A
:10383000A703009701F3059709F076C0888D998D4D
:10384000982789279827998F888F0A8D1B8D102795
:10385000012710271B8F0A8F892B09F465C08F89D8
:103860008111A2C00E949B03F501608B718B828B3A
:10387000938B21A132A18A8D9B8D232B09F090C0BF
:10388000288D398D2130310509F08AC089309105A4
:10389000F1F1883C910519F0049709F076C00E9477
:1038A0007B1587EA93E00E94EB04D50150964D9179
:1038B0005D916D917C91539758968D919D910D904E
:1038C000BC91A02D481B590B6A0B7B0B2AE08AE99F
:1038D00092E00E94C21482EA93E00E94A714F501CC
:1038E00080899189A289B389808F918FA28FB38FAC
:1038F00001E010E012A301A3C5010E94652560E06C
:1039000070E0CB010E9468030E943D2574CF0E94A5
:103910007B1581EA94E00E94A71483E090E0D50132
:1039200092969C938E939197F501828593850E9440
:103930003E078FE893E00E94A714912CD501909642
:103940008C919097815090968C93892DAAA1BBA1C0
:103950000FB6F894BEBF0FBEADBFA3960FB6F894D6
:10396000DEBF0FBECDBFDF91CF911F910F91FF90B2
:10397000EF90DF90CF90BF90AF909F908F907F900F
:103980006F905F904F903F9008950E947B158AE85A
:1039900094E00E94EB048A8D9B8D0E940E15C4CF8B
:1039A000059709F028CFC0CF0130B1E01B0770F0B8
:1039B0000E947B1589E794E00E94EB048A8D9B8D21
:1039C0000E940E15C5010E94B71415CF8DB69EB684
:1039D000C8010196EDB7FEB7E81BF90B0FB6F894D6
:1039E000FEBF0FBEEDBF2DB73EB72F5F3F4F790132
:1039F000D5011A96ED91FC91A801B90180819181C0
:103A00000E94A7038017910709F066C0EA8DFB8D1D
:103A1000EE0DFF1D10820E949B03F501608B718BE0
:103A2000828B938B8F89843109F4CEC0E8F48F3078
:103A300009F4CAC0813109F4B7C2863009F0D8C28E
:103A4000488D598DD12CC12CF12CE12C08EC10E0C3
:103A500030E020E060E0C5010E9420210FB6F8941C
:103A60009EBE0FBE8DBEC7CE893201F1873309F4E9
:103A7000B0C28D3109F0BCC281A192A1892B01F79E
:103A80000E947B1583E794E00E94A71401E010E0F8
:103A9000F50112A301A3C5010E94652560E070E055
:103AA000CB010E9468030E943D25CACF8685978579
:103AB000892B39F480E490E00E94722AF5019787FF
:103AC00086870A8D1B8D0E0D1F1DFA82E9821C83CD
:103AD0000B83E016F10630F00FB6F8949EBE0FBED1
:103AE0008DBE22CF40E450E0B701D5011E968D91E6
:103AF0009C910E94E32DD5011E96ED91FC9117AE8D
:103B0000C3010E941B25FC018081918180179107D0
:103B100008F057C089819A81009709F44EC02B8123
:103B20003C818217930708F048C00E94592C8B01F2
:103B30000E947B1583E694E00E94EB04D5011E965B
:103B40006D917C916115710521F08AE992E00E94E6
:103B500098146AE38AE992E00E94F703C8010E9480
:103B60000E15F501828593850E943E07D5011A96B0
:103B7000ED91FC911B971E968D919C911F979187BB
:103B800080871387028792961C921E9291970E94BB
:103B90009B03DC01CB0188589341A109B109F501D0
:103BA000848B958BA68BB78B808B918BA28BB38BE1
:103BB000808F918FA28FB38F51CF60E070E0CB01E7
:103BC000B6CF00E510E0B4CF888D998DD5015F9612
:103BD0009C938E935E970A8D1B8D19A308A3680191
:103BE000CE0CDF1CFD8EEC8EDF8ECE8EEC14FD0431
:103BF00008F06DC1D7010D911C91CE014C960E9429
:103C00001B25FC01808191818C159D0508F05FC109
:103C10008C8D9D8DDC012C91213409F047C00196DB
:103C20000E943B2C3EE0332E380E06970CF443C026
:103C30000637B2E71B0709F44AC108F0F0C20136A3
:103C4000F2E71F0709F4D6C2043622E7120709F08B
:103C500041C033243A947A8A698A1C8A1B8A5E8A14
:103C60004D8A65EA71E0CE0141960E942B16632DC4
:103C700070E0CE0141960E948A1B832D0E94DF24B2
:103C8000BC01CE0141960E948A1B0B891C89015000
:103C9000110929893A89D12CC12CF12CE12C50E051
:103CA00040E064E1C5010E94202111C1CE014C9683
:103CB0000E942E25382E0637B2E71B0709F42AC1C9
:103CC00020F50136F2E71F0709F4B2C0043622E7F7
:103CD000120709F200371D4609F46FC00E947B15D8
:103CE00089E494E00E94EB04C7010E940825D501F5
:103CF0005E964D915C91D12CC12CF12CE12C02E00F
:103D000010E030E020E060E0CDCF043647E7140754
:103D100009F473C0063757E7150709F415C10136D2
:103D20001747E1F6CE014C960E941B25DC018D91D0
:103D30009C918C159D0508F0CAC061E0832D0E94FE
:103D40000703CE014C960E942E258C0161E0832D45
:103D50000E9407030115110509F465C00F3F110505
:103D600009F090C061E060C0CE014C960E942E2503
:103D7000F82ECE014C960E941B250C8D1D8D67E9F7
:103D800071E0C8010E94D32D60E0892B79F06AE9C7
:103D900071E0C8010E94D32D892B39F06EE971E0E2
:103DA000C8010E94D32D892BE9F461E08F2D0E9478
:103DB0000703CE014C960E941B258C8D9D8D8C1582
:103DC0009D0508F084C0DC012C91213469F6019630
:103DD0000E943B2C2EE0F22EF80E069754F2FF24A0
:103DE000FA94C7CF62EA71E0C8010E94D32D892BF3
:103DF00001F762E0DBCF33243A94CE014C960E9467
:103E00001B25FC01808191818C159D0508F05FC008
:103E100061E0832D0E940703CE014C960E942E255F
:103E200061E0892B09F460E0832D0E94D9024FC024
:103E30007A8A698A1C8A1B8A5E8A4D8A68EA71E0DE
:103E4000CE0141960E942B16632D70E0CE01419663
:103E50000E948A1BFDE0F31510F402EF300E832D53
:103E60008770806480937C0080917A008064809366
:103E70007A0080917A0086FDFCCF60917800709185
:103E80007900FFCEE32DF0E0EB54FC4FE491E330FA
:103E900039F148F4E130B9F0E230E9F000381105C9
:103EA0000CF060CFC0CFE73029F1E83059F1E430B1
:103EB000A9F78091800080628093800010938B002E
:103EC00000938A0004C084B5806884BD07BDF501F5
:103ED000178E168EC3CD84B5806284BD08BDF7CF22
:103EE0008091800080688093800010938900009307
:103EF0008800EDCF8091B00080688093B00000937F
:103F0000B300E5CF8091B00080628093B000009351
:103F1000B400DDCFE32DF0E0FA83E983BFE1B31510
:103F2000B0F2EE0FFF1FE753FC4F2591349121159E
:103F3000310569F2E2E02B3A3E0749F2C301F9018B
:103F40000995C5CF33243A94CE014C960E941B2587
:103F50002C8D3D8DC9018E199F0908A119A1081B3F
:103F6000190B3A8329831C830B831E830D83E32D56
:103F7000F0E0FA8BE98B1FE1131508F4A8CFEE0FE0
:103F8000FF1FE75FFB4F259134912115310509F49F
:103F90009ECF42E02A3A340709F499CFB301CE010B
:103FA0004196F901099593CF8A8D9B8D8E0D9F1DAA
:103FB000FA82E9829C838B83E816F90608F04ECDDD
:103FC000C3010E941B25D5015F961C921E925E972D
:103FD00045CD8A8D9B8D892B09F440CD0E947B15A0
:103FE0008AE594E00E94EB04C7010E94082536CDC3
:103FF000C5010E94B71432CD0E949B032B013C01E6
:10400000D5011A968D919C910E942B07F50121A153
:1040100032A12130310509F063C0811108C0408E02
:10402000518E628E738EC5010E94B71486CC808932
:104030009189A289B38993018201081B190B2A0B6C
:104040003B0BD901C801893116EF9107A105B105D4
:1040500038F00E947B1582EC94E00E94A714E3CF15
:10406000893C9F4AA105B10590F484899589A68968
:10407000B78993018201081B190B2A0B3B0BD9014D
:10408000C801893C9F4AA105B10508F4A0CBF50100
:10409000808D918DA28DB38D93018201081B190B28
:1040A0002A0B3B0BD901C80181379741A105B10506
:1040B00008F48DCBD12CC12CF12CE12C10E000E0C8
:1040C00030E020E050E040E066E0C5010E942021A1
:1040D000D50158964D925D926D927C925B9777CB0D
:1040E000232B09F074CB408D518D628D738D93011C
:1040F0008201041B150B260B370BB901A80188237D
:10410000B1F0413757416105710508F460CB0E9459
:104110007B1584EB94E00E94A714D5011A968D912B
:104120009C910E943E07F50112A211A206CC4938CB
:1041300053416105710508F44ACBD5011A968D915A
:104140009C910E943E07F50102851385D8011A96BD
:104150006D917C91C8010E948D15F80184878111B1
:104160000DC0828593858035910599F460E97FE1E2
:10417000C8010E948D15D8011C968C93D8011C96FD
:104180009C90911011C0F501408E518E628E738EFD
:10419000D5CB80399F4191F760E570E0C8010E945E
:1041A0008D15F8018487EACF81E090E0D5015D9616
:1041B0009C938E935C971C962D913C91F9010190F4
:1041C0000020E9F731978F01021B130BD12CC12C72
:1041D000F12CE12C41E050E06DE1C5010E9420216D
:1041E000F50184899589A689B789808F918FA28FDF
:1041F000B38FA4CB7A8A698A1C8A1B8A5E8A4D8A0D
:1042000068EA71E0CE0141960E942B166FEF70E0D4
:10421000CE0141960E948A1B33243A941ECE043666
:1042200047E7140709F4E7CD063757E7150709F400
:1042300089CE0136174709F051CD33243A9472CD17
:104240002F923F924F925F926F927F928F929F92A6
:10425000AF92BF92CF92DF92EF92FF920F931F9394
:10426000CF93DF93CDB7DEB7C854D1090FB6F8941A
:10427000DEBF0FBECDBF4C0168AF5AAF49AF279626
:104280003FAF2EAF279721961FAF0EAF21972996EC
:10429000FFAEEEAE29972396DFAECEAE2397DC01BC
:1042A0001A968D919C910E942B07882309F4B3C123
:1042B000B8ADBB2351F0B63041F0BD3131F0F4015F
:1042C00081A192A1019709F0A6C188AD8F508630D7
:1042D000A0F5D40154964D915D916D917C915797C5
:1042E0005096CD90DD90ED90FC905397C416D50676
:1042F000E606F70610F46A017B01B2E4CB0ED11C8E
:10430000E11CF11C0E949B03A7019601261B370BA1
:10431000480B590BDA01C901B7FD97C1C4010E94CE
:10432000AF1B0E949B03A7019601261B370B480B6E
:10433000590BDA01C901B7FFF1CFF40180819181F6
:10434000019709F0B2C082E090E0918380832281DE
:104350003381448155816681778180859185A0E094
:10436000FE017A960E94A42D09F482C1FBABEAAB50
:104370001DAA1CAA88E190E09FAB8EAB65E971E0B5
:10438000CE01C2960E942B16D40112964C90129721
:1043900013965C90139714966C90149715967C90D6
:1043A00015971696BC91BBAFF401F781FCAFD40111
:1043B00018962C90189719963C90198E9201A3018B
:1043C0006BAD7F2FC101A0E00E94A42D09F446C16E
:1043D000FE0179962596FFAFEEAF259727E130E0F5
:1043E0003EAF2DAF8AE0A82EB12CC12CD12CE12CF0
:1043F000F12C00E010E09201A3016BAD7CADC10196
:104400000E94452DF901E355FE4F80812596AEAD02
:10441000BFAD25978E932596BFAFAEAF2597EDAD77
:10442000FEAD3197FEAFEDAF9AE0A92EB12CC12CB5
:10443000D12CE12CF12C00E010E09201A3016BAD36
:104440007CADC1010E94472D29013A016BAF7CAFC1
:104450001C01A0E00E94A42D21F04DAD5EAD452BC6
:1044600009F66DAD7EAD6C0F7D1F6E5F7F4F09F05D
:10447000FAC0EAA9FBA98CA99DA99C012F5F3F4F17
:104480003DAB2CABE80FF91F10820CA91DA9015000
:1044900011092AA93BA9D12CC12CF12CE12C50E007
:1044A00040E065E1C4010E94202129AD3AAD232BF3
:1044B000B9F4D4015E960D90BC91A02DBAAFA9AF0E
:1044C000AB2B71F4F401848D958D019609F4E5C050
:1044D000958F848FF401048CF58DE02DFAAFE9AF50
:1044E00027962EAD3FAD279721960EAD1FAD219794
:1044F0000B5F1F4F232B11F405E010E029964EAD02
:104500005FAD299790E080E0452B21F023968EAD9A
:104510009FAD2397080F191F58AD598389AD9AADE8
:104520009827892798279B838A8321968EAD9FADF4
:1045300021972396AEADBFAD23978A0F9B1F982777
:10454000892798279D838C83D4011A96ED91FC913D
:1045500080819181DC01ED91FC910280F381E02D5D
:1045600045E050E0BE016F5F7F4F09957C0160E040
:1045700070E0CB010E946803B8ADBB2309F444C0CE
:104580002196EEADFFAD2197EF2BE1F0D4011A9605
:10459000ED91FC9180819181DC01ED91FC91028093
:1045A000F381E02D21964EAD5FAD219727966EAD3C
:1045B0007FAD27970995E80EF91E60E070E0CB010A
:1045C0000E9468032396EEADFFAD2397EF2BE1F039
:1045D000D4011A96ED91FC9180819181DC01ED91DD
:1045E000FC910280F381E02D23964EAD5FAD2397C1
:1045F00029966EAD7FAD29970995E80EF91E60E00A
:1046000070E0CB010E946803E016F10609F44AC08D
:10461000C4010E94B714C85BDF4F0FB6F894DEBF29
:104620000FBECDBFDF91CF911F910F91FF90EF9003
:10463000DF90CF90BF90AF909F908F907F906F90C2
:104640005F904F903F902F900895D40190968C9159
:10465000811173CEC4010E94AF1B6FCE80E3888F9F
:10466000BE01685E7F4FCE01C2960E942B160DCF11
:10467000FA83E9831C821B8284E090E09E838D8311
:104680006BEA71E0CE0101960E942B160B811C8112
:104690000150110929813A81FECE81E090E0958F89
:1046A000848F18CF0E949B03F401648B758B868BDB
:1046B000978BB1CFCF92DF92EF92FF920F931F9320
:1046C000CF93DF93CDB7DEB7C658D1090FB6F894B4
:1046D000DEBF0FBECDBF7C018B01CE010196CF574F
:1046E000DF4F99838883C158D040CD57DF4F19825F
:1046F0001882C358D04080E890E0CB57DF4F9983B1
:104700008883C558D0406EEB71E0CE018F579F4F24
:104710000E942B16B701CE018F579F4F0E948A1B14
:10472000B801CE018F579F4F0E948A1BCD57DF4F94
:1047300008811981C358D04001501109CF57DF4F6C
:1047400028813981C158D040D12CC12CF12CE12CC9
:1047500050E040E064E18DE693E00E942021CA57DA
:10476000DF4F0FB6F894DEBF0FBECDBFDF91CF9104
:104770001F910F91FF90EF90DF90CF900895CF930E
:10478000DF93FB01808191810E943B2CEC01682F1B
:1047900086E00E94D9028BE990E00E94EB0484E954
:1047A00090E0209711F088E990E00E94A714BE01E4
:1047B00083E090E0DF91CF910C945A23CF93DF9365
:1047C000FB01808191810E943B2CEC01682F85E0E8
:1047D0000E94D9028DE890E00E94EB0486E890E008
:1047E000209711F08AE890E00E94A714BE0182E0B1
:1047F00090E0DF91CF910C945A23CF93DF93FB018C
:10480000808191810E943B2CEC01682F84E00E9402
:10481000D9028FE790E00E94EB0488E790E02097B0
:1048200011F08CE790E00E94A714BE0181E090E0B7
:10483000DF91CF910C945A23CF93DF93FB018081BA
:1048400091810E943B2CEC01682F83E00E94D902E9
:1048500082E790E00E94EB048BE690E0209711F055
:104860008FE690E00E94A714BE0190E080E0DF9107
:10487000CF910C945A230C940E2B1F920F920FB6CB
:104880000F9211242F933F938F939F93AF93BF93D6
:1048900080910D0290910E02A0910F02B091100232
:1048A00030910C0223E0230F2D3758F50196A11DFE
:1048B000B11D20930C0280930D0290930E02A093E1
:1048C0000F02B09310028091110290911202A091F8
:1048D0001302B09114020196A11DB11D8093110223
:1048E00090931202A0931302B0931402BF91AF9160
:1048F0009F918F913F912F910F900FBE0F901F901E
:10490000189526E8230F0296A11DB11DD2CF1F9244
:104910000F920FB60F9211242F933F934F935F93F3
:104920006F937F938F939F93AF93BF93EF93FF9377
:104930008AE992E00E947C04FF91EF91BF91AF91D0
:104940009F918F917F916F915F914F913F912F91A7
:104950000F900FBE0F901F9018951F920F920FB6D9
:104960000F9211242F938F939F93EF93FF93E091D6
:10497000AA02F091AB028081E091B002F091B10205
:1049800082FD1BC090818091B3028F5F8F73209155
:10499000B402821741F0E091B302F0E0E656FD4F19
:1049A000958F8093B302FF91EF919F918F912F91FB
:1049B0000F900FBE0F901F9018958081F4CFCF936A
:1049C000DF93282F30E0F901EB54FC4F8491F9017B
:1049D000E558FC4FD491F901E959FC4FC491CC231F
:1049E000A1F081110E94B002EC2FF0E0EE0FFF1F4A
:1049F000E35AFC4FA591B491EC91ED2381E090E056
:104A000009F480E0DF91CF91089580E090E0FACF43
:104A1000CF93DF93BC018AE992E00E949814EC01E5
:104A20006DE871E08AE992E00E9498148C0F9D1F56
:104A3000DF91CF910895DC01ED91FC9111973097B2
:104A400061F012962D913C911397E217F30728F429
:104A500001900020E9F7ED93FC930895FC0180811B
:104A60009181009739F0228133818217930710F4E6
:104A70000C943B2C90E080E0089582EB90E00E9443
:104A8000A71483E00E94DF24BC0190E080E00E9434
:104A90005A2384E00E94DF24BC0181E090E00E9460
:104AA0005A2385E00E94DF24BC0182E090E00E944E
:104AB0005A2386E00E94DF24BC0183E090E00E943C
:104AC0005A2384EA90E00C94A714AF92BF92CF923D
:104AD000DF92EF92FF920F931F93CF93DF93CDB7A7
:104AE000DEB7CC5CD1090FB6F894DEBF0FBECDBFE8
:104AF0005C01CE0189579F4FC953DF4F998388834B
:104B0000C75CD040C753DF4F19821882C95CD040C0
:104B100080E490E0C553DF4F99838883CB5CD0401D
:104B200061EC71E0CE0189539F4F0E942B1666EC19
:104B300071E0CE0189539F4F0E942B1646E850E04A
:104B40006BEC70E0CE0101960E94802CC753DF4FC2
:104B5000C880D980C95CD04081E0C81AD108C95347
:104B6000DF4FE880F980C75CD04006E810E09E0186
:104B70002F5F3F4F50E040E061E1C5010E942021DE
:104B8000C453DF4F0FB6F894DEBF0FBECDBFDF9129
:104B9000CF911F910F91FF90EF90DF90CF90BF903A
:104BA000AF900895EAE9F2E01382128288EE93E072
:104BB000A0E0B0E084839583A683B78387E491E087
:104BC0009183808385EC90E09587848784EC90E0E6
:104BD0009787868780EC90E0918B808B81EC90E0CA
:104BE000938B828B82EC90E0958B848B86EC90E0AB
:104BF000978B868B118E128E138E148EE7E3F3E063
:104C00008BE891E091838083128213821482158253
:104C1000EDE3F3E091838083128213821482158284
:104C2000E3E4F3E09183808312821382148215827D
:104C3000E9E4F3E091838083128213821482158267
:104C4000EFE4F3E091838083128213821482158251
:104C5000EBE5F3E091838083128213821482158244
:104C6000E5E5F3E09183808312821382148215823A
:104C7000E1E6F3E09183808312821382148215822D
:104C8000E7E6F3E091838083128213821482158217
:104C9000E2EBF3E091838083128213821482158207
:104CA000E3EAF3E01382128229E531E031832083C5
:104CB00024E0248728EE33E036872587A6E9B3E091
:104CC00013969C938E93129714961D921D921D928B
:104CD0001C92179719961C921E9218971B961C925D
:104CE0001E921A971C961C921C971196FC93EE9399
:104CF00040E757E160E070E0448355836683778343
:104D0000EDE6F3E011821082128213821482158282
:104D10001682178210861186B387A287158614869D
:104D200017861686108A118A128A138A148A158A9F
:104D3000168A178A108E118E128E138E158E148E6F
:104D4000178E168E10A212A211A20895CF93DF9390
:104D5000CDB7DEB76C970FB6F894DEBF0FBECDBFF0
:104D6000789484B5826084BD84B5816084BD85B546
:104D7000826085BD85B5816085BD80916E00816052
:104D800080936E00109281008091810082608093F8
:104D900081008091810081608093810080918000FA
:104DA0008160809380008091B10084608093B10025
:104DB0008091B00081608093B00080917A0084601F
:104DC00080937A0080917A00826080937A0080914B
:104DD0007A00816080937A0080917A008068809365
:104DE0007A001092C100E091AA02F091AB0282E039
:104DF0008083E091A602F091A7021082E091A802C0
:104E0000F091A9028FEC80831092B202E091AE0281
:104E1000F091AF0286E08083E091AC02F091AD02A8
:104E2000808180618083E091AC02F091AD0280814D
:104E300088608083E091AC02F091AD02808180684F
:104E40008083E091AC02F091AD0280818F7D808300
:104E500088E093E00E94A71461E083E00E940703CA
:104E600061E084E00E94070361E085E00E9407039F
:104E700061E086E00E94070361E08AE00E94070388
:104E800061E089E00E94070360E083E00E94D902AC
:104E900060E084E00E94D90260E085E00E94D902CF
:104EA00060E086E00E94D90261E08AE00E94D902B7
:104EB00084EF92E00E94A71485EA91E00E94A71473
:104EC00060E089E00E94D90262E370E080E090E057
:104ED0000E94680361E089E00E94D90268EC70E0FA
:104EE00080E090E00E9468038AE08093000183E004
:104EF00091E00E94851A892B09F0B5C088E891E0FD
:104F00000E94A7148BE891E09A8389832FEF2B836B
:104F10002C832D831E8298878F8350EC598748EA13
:104F20004A8731E03B873C879E878D8728E02F8723
:104F3000288B298B2A8B9C8B8B8B5D8B4E8B3F8B8D
:104F400084E6888F9E012F5F3F4FAE01495F5F4F20
:104F5000BE01635F7F4FCE0143960E948C0960EDD6
:104F600077E080E090E00E9468038BE791E00E9488
:104F7000EB040BE811E01A8309831B821C821D825B
:104F80001E8280E591E00E94950244E050E0BE015F
:104F90006D5F7F4F8FE090E00E946A07CE0101961F
:104FA0000E94691581E791E00E94EB041A8309834E
:104FB0001B821C821D821E8280E591E00E94950268
:104FC00044E050E0BE016D5F7F4F81E090E00E94C1
:104FD0006A07CE0101960E9469158FEC92E00E944B
:104FE000A7140E947B158EE892E00E94A7148EEF12
:104FF000809390039DEE909391032AEB209392036C
:10500000809393038093940390939503A4EDB1E070
:10501000E1E0F0E09F012F5F3F4F4D91E359FC4FDE
:1050200083A1842783A3E1E0F0E0263031050CF46E
:10503000F90121E0A43FB20769F780E993E00E94FB
:10504000851A8C01892BA1F40E947B1581E892E0DE
:105050000E94A71460E177E280E090E00E9468037C
:10506000F8010995FFCF80E891E00E94A71477CF5F
:1050700068EE73E080E090E00E9468038BE891E0C6
:105080009A8389831B821C821D821E8280E591E0A7
:105090000E94950244E050E0BE016D5F7F4F8FE0BB
:1050A00090E00E946A070E947B158DE792E00E94C3
:1050B000EB046B818AE992E00E9424156EE28AE992
:1050C00092E00E94F7036C818AE992E00E94241525
:1050D0006EE28AE992E00E94F7036D818AE992E02C
:1050E0000E9424156EE28AE992E00E94F7036E8125
:1050F0008AE992E00E9424156DE871E08AE992E065
:105100000E94981484ED91E090937A038093790340
:105110000E949B03DC01CB0188589341A109B1098E
:105120008093810390938203A0938303B0938403BD
:1051300080937D0390937E03A0937F03B0938003BD
:105140008093850390938603A0938703B09388038D
:105150000E947B158DEB91E00E94A714E0917703EC
:10516000F091780385EF91E09187808780E590E06A
:105170009387828780917703909178030E943E07FE
:1051800010928F0310928E030E949B036B017C018F
:1051900080918E0390918F03019781F00E949B0371
:1051A0006C197D098E099F0960357644810591054A
:1051B00028F48DE693E00E94AF1BEACF80918E0326
:1051C00090918F030197B1F6C12CD12C7601C39435
:1051D00080918E0390918F03019709F480C12BE099
:1051E000C216D104E104F10409F462C185EC92E035
:1051F0000E94EB042AE0B701A6018AE992E00E942E
:10520000C2146DE871E08AE992E00E9498148DE67C
:1052100093E00E94AF1B68EE73E080E090E00E9494
:1052200068033FEFC31AD30AE30AF30AD1CF821B04
:10523000930BA40BB50B86A797A7A0ABB1AB80C00F
:10524000821B930BA40BB50B82AB93ABA4ABB5AB9A
:1052500086C090E080E098C080E591E00E949502D1
:1052600085E390E00E94440885FD0DC18DE193E047
:105270000E94A7140E949B03609308027093090286
:1052800080930A0290930B026AE070E080E090E065
:105290000E946803C114D10429F00E94680481119E
:1052A0000E9400008DE693E00E94AF1B0091320245
:1052B000109133020115110509F4C6C00E949B0329
:1052C0004B015C0178014EE3E40EF11CF701808193
:1052D0009181A281B381A5019401281B390B4A0B4E
:1052E0005B0BCA01B901683E33E073078105910584
:1052F000B0F1A30192010E940D2D698F7A8F8B8FDF
:105300009C8F861A970AA80AB90AD7018D929D9296
:10531000AD92BC921397F80186A597A5A0A9B1A953
:1053200049015A01880C991CAA1CBB1C88159905B7
:10533000AA05BB0508F07BCF16A617A610AA11AACE
:10534000F80182A993A9A4A9B5A988159905AA0568
:10535000BB0508F075CF12AA13AA14AA15AAF80162
:1053600086A597A5A0A9B1A9892B8A2B8B2B09F01B
:1053700070CFEE5BFF4F8081833009F06ACF2082CF
:10538000C8010E9400190196D801D2964D915D91F5
:105390006D917C91D597452B462B472BA1F4F801B5
:1053A000EE5BFF4F2081233011F021110CC01082E1
:1053B000F8013E96DF01232D1D922A95E9F7C801D9
:1053C0000E94001903968230910511F00497E1F5CF
:1053D00080E591E00E949502009132021091330223
:1053E000B801625F7F4FCE0101960E949510CE01F9
:1053F00003960E94BC06B8016A5E7F4FCE010196FB
:105400000E949510CE0103960E94CA06B8016E5EF6
:105410007F4FCE0101960E949510CE0103960E9407
:10542000C306B801625E7F4FCE0101960E949510BF
:105430008B819C81AD81BE818093570390935803EB
:10544000A0935903B0935A030E949B030091080252
:105450001091090220910A0230910B02601B710B1E
:10546000820B930B61367A4E8105910508F40CCFBF
:105470000E946F08882339F080913102843309F447
:10548000EBCE873351F080918E0390918F0301977B
:1054900009F4F0CE83E393E0EBCE80E591E00E9447
:1054A00095028EE290E00E94440880FDECCFDECEB3
:1054B0008DEA92E00E94A71486EE92E00E94A71463
:1054C00074E1372EE4E02E2EF8EE4F2EF3E05F2E3F
:1054D000612C712CA0E0CA2EA0E0DA2EE3CE8CE97C
:1054E00092E0E8CF0F931F93CF93DF938230910523
:1054F00010F482E090E0E091BA03F091BB0330E059
:1055000020E0B0E0A0E0309799F42115310509F4CE
:105510004AC0281B390B24303105D8F58A819B817C
:105520006115710589F1FB0193838283FE0111C02E
:10553000408151810281138148175907E0F04817D3
:10554000590799F4109761F012960C9312971396DD
:105550001C933296CF01DF91CF911F910F91089547
:105560000093BA031093BB03F4CF2115310551F01A
:105570004217530738F0A901DB019A01BD01DF0191
:10558000F801C1CFEF01F9CF9093BB038093BA0329
:10559000CDCFFE01E20FF31F819391932250310989
:1055A00039832883D7CF2091B8033091B903232BB7
:1055B00041F420910B0130910C013093B9032093F9
:1055C000B8032091090130910A012115310541F4F8
:1055D0002DB73EB740910D0150910E01241B350BA4
:1055E000E091B803F091B903E217F307A0F42E1B82
:1055F0003F0B2817390778F0AC014E5F5F4F241737
:10560000350748F04E0F5F1F5093B9034093B8031E
:10561000819391939FCFF0E0E0E09CCFCF93DF9315
:105620000097E9F0FC01329713821282A091BA032D
:10563000B091BB03ED0130E020E01097A1F4208190
:105640003181820F931F2091B8033091B90328173D
:10565000390709F061C0F093B903E093B803DF9113
:10566000CF910895EA01CE17DF07E8F54A815B8103
:105670009E0141155105B1F7E901FB83EA83499188
:105680005991C40FD51FEC17FD0761F480819181FA
:105690000296840F951FE901998388838281938103
:1056A0009B838A83F0E0E0E012968D919C911397A2
:1056B0000097B9F52D913C911197CD010296820F7B
:1056C000931F2091B8033091B9032817390739F691
:1056D000309751F51092BB031092BA03B093B903FF
:1056E000A093B803BCCFD383C28340815181840F80
:1056F000951FC817D90761F44E5F5F4F8881998164
:10570000480F591F518340838A819B8193838283F1
:105710002115310509F0B0CFF093BB03E093BA0334
:105720009ECFFD01DC01C0CF13821282D7CF8F92B2
:105730009F92AF92BF92CF92DF92EF92FF92CF9360
:10574000DF93EC01688179818A819B816115710504
:105750008105910521F464E279ED8BE597E02DE177
:1057600033EF41E050E00E94DB2C49015A019B01DC
:10577000AC01A7EAB1E40E94FA2C6B017C01ACEE0B
:10578000B4EFA50194010E94082DC60ED71EE81E95
:10579000F91EF7FE06C081E0C81AD108E10880E8CA
:1057A000F80AC882D982EA82FB82C701B6019F77D4
:1057B000DF91CF91FF90EF90DF90CF90BF90AF90AF
:1057C0009F908F9008958F929F92AF92BF92CF92A9
:1057D000DF92EF92FF9260910F0170911001809122
:1057E000110190911201611571058105910521F456
:1057F00064E279ED8BE597E02DE133EF41E050E095
:105800000E94DB2C49015A019B01AC01A7EAB1E4DB
:105810000E94FA2C6B017C01ACEEB4EFA50194015F
:105820000E94082DC60ED71EE81EF91EF7FE06C000
:1058300081E0C81AD108E10880E8F80AC0920F0197
:10584000D0921001E0921101F0921201C701B6014D
:105850009F77FF90EF90DF90CF90BF90AF909F9099
:105860008F90089560930F01709310018093110140
:10587000909312010895FC0188279927E8942191BB
:105880002032E9F3293010F02E30C8F32B3241F0EA
:105890002D3239F4689404C00E94A92C820F911D06
:1058A000219120532A30C0F31EF4909581959F4F8B
:1058B00008951F93FC0199278827BC01E894119152
:1058C0001032E9F3193010F01E30C8F31B3251F0DA
:1058D0001D3249F4689406C00E94942C610F711D1A
:1058E000811D911D119110531A30B0F33EF4909523
:1058F0008095709561957F4F8F4F9F4F1F910895B1
:10590000FB01DC0102C005900D9241505040D8F7D8
:105910000895BB274A3031F4992322F4BDE29095D3
:1059200081959F4F0C94B22C592F482F372F262F3B
:10593000660F771F881F991F660F771F881F991F93
:10594000620F731F841F951F660F771F881F991F93
:1059500008957AE0979F902D879F802D910D1124B7
:105960000895BB27FB015527AA27880F991FAA1F57
:10597000A41710F0A41B83955051B9F7A05DAA336A
:1059800008F0A95DA193009779F7B111B193119235
:10599000CB010C94CB2CDC01FC01672F7191772398
:1059A000E1F7329704C07C916D9370836291AE17DA
:1059B000BF07C8F30895052E97FB1EF400940E94BC
:1059C000F22C57FD07D00E940D2D07FC03D04EF49A
:1059D0000C94F22C50954095309521953F4F4F4FA8
:1059E0005F4F089590958095709561957F4F8F4F8B
:1059F0009F4F08950E942F2DA59F900DB49F900D4D
:105A0000A49F800D911D11240895B7FF0C94FA2CCA
:105A10000E94FA2C821B930B0895A1E21A2EAA1B56
:105A2000BB1BFD010DC0AA1FBB1FEE1FFF1FA2174E
:105A3000B307E407F50720F0A21BB30BE40BF50B4B
:105A4000661F771F881F991F1A9469F760957095D4
:105A5000809590959B01AC01BD01CF010895A29F57
:105A6000B001B39FC001A39F700D811D1124911D32
:105A7000B29F700D811D1124911D089569279627ED
:105A800069277827872778270895689401C0E894C4
:105A90008F929F92CF93DF930E94532DDF91CF91EE
:105AA0009F908F90089588249924F401E401B0E434
:105AB0009F93AA279A158B049C04ED05FE05CF053C
:105AC000D007A10798F4AD2FDC2FCF2FFE2FE92DA3
:105AD000982C892E982F872F762F652F542F432FA0
